{"contracts/MessageVault.sol":{"MessageVault":{"abi":[{"anonymous":false,"inputs":[{"indexed":true,"internalType":"address","name":"sender","type":"address"},{"indexed":true,"internalType":"address","name":"recipient","type":"address"},{"indexed":false,"internalType":"string","name":"cid","type":"string"},{"indexed":false,"internalType":"uint256","name":"timestamp","type":"uint256"}],"name":"MessageRecorded","type":"event"},{"inputs":[{"internalType":"address","name":"recipient","type":"address"},{"internalType":"string","name":"cid","type":"string"}],"name":"recordMessage","outputs":[],"stateMutability":"nonpayable","type":"function"}],"evm":{"bytecode":{"linkReferences":{},"object":"6080604052348015600f57600080fd5b506103c98061001f6000396000f3fe608060405234801561001057600080fd5b506004361061002b5760003560e01c80630f3dfe3514610030575b600080fd5b61004a6004803603810190610045919061026f565b61004c565b005b8173ffffffffffffffffffffffffffffffffffffffff163373ffffffffffffffffffffffffffffffffffffffff167f31fc9d6bfc3755000842e27d840cf6ed2c74ba00bb24a923524b3f949934724683426040516100ab929190610363565b60405180910390a35050565b6000604051905090565b600080fd5b600080fd5b600073ffffffffffffffffffffffffffffffffffffffff82169050919050565b60006100f6826100cb565b9050919050565b610106816100eb565b811461011157600080fd5b50565b600081359050610123816100fd565b92915050565b600080fd5b600080fd5b6000601f19601f8301169050919050565b7f4e487b7100000000000000000000000000000000000000000000000000000000600052604160045260246000fd5b61017c82610133565b810181811067ffffffffffffffff8211171561019b5761019a610144565b5b80604052505050565b60006101ae6100b7565b90506101ba8282610173565b919050565b600067ffffffffffffffff8211156101da576101d9610144565b5b6101e382610133565b9050602081019050919050565b82818337600083830152505050565b600061021261020d846101bf565b6101a4565b90508281526020810184848401111561022e5761022d61012e565b5b6102398482856101f0565b509392505050565b600082601f83011261025657610255610129565b5b81356102668482602086016101ff565b91505092915050565b60008060408385031215610286576102856100c1565b5b600061029485828601610114565b925050602083013567ffffffffffffffff8111156102b5576102b46100c6565b5b6102c185828601610241565b9150509250929050565b600081519050919050565b600082825260208201905092915050565b60005b838110156103055780820151818401526020810190506102ea565b60008484015250505050565b600061031c826102cb565b61032681856102d6565b93506103368185602086016102e7565b61033f81610133565b840191505092915050565b6000819050919050565b61035d8161034a565b82525050565b6000604082019050818103600083015261037d8185610311565b905061038c6020830184610354565b939250505056fea26469706673582212201f33db79dc02300afc9ddf482ee745602bb8554e3d4fc49274b1d54ca5a73f9164736f6c634300081c0033","opcodes":"PUSH1 0x80 PUSH1 0x40 MSTORE CALLVALUE DUP1 ISZERO PUSH1 0xF JUMPI PUSH1 0x0 DUP1 REVERT JUMPDEST POP PUSH2 0x3C9 DUP1 PUSH2 0x1F PUSH1 0x0 CODECOPY PUSH1 0x0 RETURN INVALID PUSH1 0x80 PUSH1 0x40 MSTORE CALLVALUE DUP1 ISZERO PUSH2 0x10 JUMPI PUSH1 0x0 DUP1 REVERT JUMPDEST POP PUSH1 0x4 CALLDATASIZE LT PUSH2 0x2B JUMPI PUSH1 0x0 CALLDATALOAD PUSH1 0xE0 SHR DUP1 PUSH4 0xF3DFE35 EQ PUSH2 0x30 JUMPI JUMPDEST PUSH1 0x0 DUP1 REVERT JUMPDEST PUSH2 0x4A PUSH1 0x4 DUP1 CALLDATASIZE SUB DUP2 ADD SWAP1 PUSH2 0x45 SWAP2 SWAP1 PUSH2 0x26F JUMP JUMPDEST PUSH2 0x4C JUMP JUMPDEST STOP JUMPDEST DUP2 PUSH20 0xFFFFFFFFFFFFFFFFFFFFFFFFFFFFFFFFFFFFFFFF AND CALLER PUSH20 0xFFFFFFFFFFFFFFFFFFFFFFFFFFFFFFFFFFFFFFFF AND PUSH32 0x31FC9D6BFC3755000842E27D840CF6ED2C74BA00BB24A923524B3F9499347246 DUP4 TIMESTAMP PUSH1 0x40 MLOAD PUSH2 0xAB SWAP3 SWAP2 SWAP1 PUSH2 0x363 JUMP JUMPDEST PUSH1 0x40 MLOAD DUP1 SWAP2 SUB SWAP1 LOG3 POP POP JUMP JUMPDEST PUSH1 0x0 PUSH1 0x40 MLOAD SWAP1 POP SWAP1 JUMP JUMPDEST PUSH1 0x0 DUP1 REVERT JUMPDEST PUSH1 0x0 DUP1 REVERT JUMPDEST PUSH1 0x0 PUSH20 0xFFFFFFFFFFFFFFFFFFFFFFFFFFFFFFFFFFFFFFFF DUP3 AND SWAP1 POP SWAP2 SWAP1 POP JUMP JUMPDEST PUSH1 0x0 PUSH2 0xF6 DUP3 PUSH2 0xCB JUMP JUMPDEST SWAP1 POP SWAP2 SWAP1 POP JUMP JUMPDEST PUSH2 0x106 DUP2 PUSH2 0xEB JUMP JUMPDEST DUP2 EQ PUSH2 0x111 JUMPI PUSH1 0x0 DUP1 REVERT JUMPDEST POP JUMP JUMPDEST PUSH1 0x0 DUP2 CALLDATALOAD SWAP1 POP PUSH2 0x123 DUP2 PUSH2 0xFD JUMP JUMPDEST SWAP3 SWAP2 POP POP JUMP JUMPDEST PUSH1 0x0 DUP1 REVERT JUMPDEST PUSH1 0x0 DUP1 REVERT JUMPDEST PUSH1 0x0 PUSH1 0x1F NOT PUSH1 0x1F DUP4 ADD AND SWAP1 POP SWAP2 SWAP1 POP JUMP JUMPDEST PUSH32 0x4E487B7100000000000000000000000000000000000000000000000000000000 PUSH1 0x0 MSTORE PUSH1 0x41 PUSH1 0x4 MSTORE PUSH1 0x24 PUSH1 0x0 REVERT JUMPDEST PUSH2 0x17C DUP3 PUSH2 0x133 JUMP JUMPDEST DUP2 ADD DUP2 DUP2 LT PUSH8 0xFFFFFFFFFFFFFFFF DUP3 GT OR ISZERO PUSH2 0x19B JUMPI PUSH2 0x19A PUSH2 0x144 JUMP JUMPDEST JUMPDEST DUP1 PUSH1 0x40 MSTORE POP POP POP JUMP JUMPDEST PUSH1 0x0 PUSH2 0x1AE PUSH2 0xB7 JUMP JUMPDEST SWAP1 POP PUSH2 0x1BA DUP3 DUP3 PUSH2 0x173 JUMP JUMPDEST SWAP2 SWAP1 POP JUMP JUMPDEST PUSH1 0x0 PUSH8 0xFFFFFFFFFFFFFFFF DUP3 GT ISZERO PUSH2 0x1DA JUMPI PUSH2 0x1D9 PUSH2 0x144 JUMP JUMPDEST JUMPDEST PUSH2 0x1E3 DUP3 PUSH2 0x133 JUMP JUMPDEST SWAP1 POP PUSH1 0x20 DUP2 ADD SWAP1 POP SWAP2 SWAP1 POP JUMP JUMPDEST DUP3 DUP2 DUP4 CALLDATACOPY PUSH1 0x0 DUP4 DUP4 ADD MSTORE POP POP POP JUMP JUMPDEST PUSH1 0x0 PUSH2 0x212 PUSH2 0x20D DUP5 PUSH2 0x1BF JUMP JUMPDEST PUSH2 0x1A4 JUMP JUMPDEST SWAP1 POP DUP3 DUP2 MSTORE PUSH1 0x20 DUP2 ADD DUP5 DUP5 DUP5 ADD GT ISZERO PUSH2 0x22E JUMPI PUSH2 0x22D PUSH2 0x12E JUMP JUMPDEST JUMPDEST PUSH2 0x239 DUP5 DUP3 DUP6 PUSH2 0x1F0 JUMP JUMPDEST POP SWAP4 SWAP3 POP POP POP JUMP JUMPDEST PUSH1 0x0 DUP3 PUSH1 0x1F DUP4 ADD SLT PUSH2 0x256 JUMPI PUSH2 0x255 PUSH2 0x129 JUMP JUMPDEST JUMPDEST DUP2 CALLDATALOAD PUSH2 0x266 DUP5 DUP3 PUSH1 0x20 DUP7 ADD PUSH2 0x1FF JUMP JUMPDEST SWAP2 POP POP SWAP3 SWAP2 POP POP JUMP JUMPDEST PUSH1 0x0 DUP1 PUSH1 0x40 DUP4 DUP6 SUB SLT ISZERO PUSH2 0x286 JUMPI PUSH2 0x285 PUSH2 0xC1 JUMP JUMPDEST JUMPDEST PUSH1 0x0 PUSH2 0x294 DUP6 DUP3 DUP7 ADD PUSH2 0x114 JUMP JUMPDEST SWAP3 POP POP PUSH1 0x20 DUP4 ADD CALLDATALOAD PUSH8 0xFFFFFFFFFFFFFFFF DUP2 GT ISZERO PUSH2 0x2B5 JUMPI PUSH2 0x2B4 PUSH2 0xC6 JUMP JUMPDEST JUMPDEST PUSH2 0x2C1 DUP6 DUP3 DUP7 ADD PUSH2 0x241 JUMP JUMPDEST SWAP2 POP POP SWAP3 POP SWAP3 SWAP1 POP JUMP JUMPDEST PUSH1 0x0 DUP2 MLOAD SWAP1 POP SWAP2 SWAP1 POP JUMP JUMPDEST PUSH1 0x0 DUP3 DUP3 MSTORE PUSH1 0x20 DUP3 ADD SWAP1 POP SWAP3 SWAP2 POP POP JUMP JUMPDEST PUSH1 0x0 JUMPDEST DUP4 DUP2 LT ISZERO PUSH2 0x305 JUMPI DUP1 DUP3 ADD MLOAD DUP2 DUP5 ADD MSTORE PUSH1 0x20 DUP2 ADD SWAP1 POP PUSH2 0x2EA JUMP JUMPDEST PUSH1 0x0 DUP5 DUP5 ADD MSTORE POP POP POP POP JUMP JUMPDEST PUSH1 0x0 PUSH2 0x31C DUP3 PUSH2 0x2CB JUMP JUMPDEST PUSH2 0x326 DUP2 DUP6 PUSH2 0x2D6 JUMP JUMPDEST SWAP4 POP PUSH2 0x336 DUP2 DUP6 PUSH1 0x20 DUP7 ADD PUSH2 0x2E7 JUMP JUMPDEST PUSH2 0x33F DUP2 PUSH2 0x133 JUMP JUMPDEST DUP5 ADD SWAP2 POP POP SWAP3 SWAP2 POP POP JUMP JUMPDEST PUSH1 0x0 DUP2 SWAP1 POP SWAP2 SWAP1 POP JUMP JUMPDEST PUSH2 0x35D DUP2 PUSH2 0x34A JUMP JUMPDEST DUP3 MSTORE POP POP JUMP JUMPDEST PUSH1 0x0 PUSH1 0x40 DUP3 ADD SWAP1 POP DUP2 DUP2 SUB PUSH1 0x0 DUP4 ADD MSTORE PUSH2 0x37D DUP2 DUP6 PUSH2 0x311 JUMP JUMPDEST SWAP1 POP PUSH2 0x38C PUSH1 0x20 DUP4 ADD DUP5 PUSH2 0x354 JUMP JUMPDEST SWAP4 SWAP3 POP POP POP JUMP INVALID LOG2 PUSH5 0x6970667358 0x22 SLT KECCAK256 0x1F CALLER 0xDB PUSH26 0xDC02300AFC9DDF482EE745602BB8554E3D4FC49274B1D54CA5A7 EXTCODEHASH SWAP2 PUSH5 0x736F6C6343 STOP ADDMOD SHR STOP CALLER "},"methodIdentifiers":{"recordMessage(address,string)":"0f3dfe35"}}}}}